S015000046696E616C5F50726F6A6563742E73726563EF
S11300000C9434000C9451000C9451000C94510045
S11300100C9451000C9451000C9451000C94510018
S11300200C9451000C9451000C9451000C94510008
S11300300C9451000C9451000C9451000C945100F8
S11300400C9451000C9451000C9451000C945100E8
S11300500C9451000C9451000C9451000C945100D8
S11300600C9451000C94510011241FBECFEFD8E022
S1130070DEBFCDBF11E0A0E0B1E0E0EAFCE002C0E9
S113008005900D92AE3CB107D9F721E0AEECB1E09A
S113009001C01D92A83DB207E1F70E9425040C940B
S11300A04E060C94000090EF9AB92FE02BB9E3ECC4
S11300B0F9E03197F1F700C0000089B18F708093A7
S11300C0CE012AB99BB983EC99E00197F1F700C0FE
S11300D0000089B19091CE01807F892B8093CE015D
S11300E01BB81AB8E3ECF9E03197F1F700C000004F
S11300F08091CE010895CF930E945300C82F0E948F
S11301005300C817E1F38C2FCF910895982F92953F
S11301109F708F70973041F09B3041F09D3041F0DB
S11301209E3041F0E9E007C0E0E005C0E1E003C033
S1130130E2E001C0E3E0873041F08B3041F08D30E4
S113014041F08E3041F089E007C080E005C081E0D5
S113015003C082E001C083E0E93069F0893069F0CE
S1130160F0E0EE0FFF1FEE0FFF1FE050FF4FE80F10
S1130170F11D808108958FEF08958FEF089585B163
S1130180886085B9000085B1877F85B90895CF93CC
S1130190DF93D82F662321F085B1806285B903C02F
S11301A085B18F7D85B988B18F7E88B987B18F601D
S11301B087B9C8B1C07F8D2F82958F708C2B88B979
S11301C00E94BF00DF70DC2BD8B90E94BF00CF6053
S11301D0C8B9DF91CF910895882321F085B1806259
S11301E085B903C085B18F7D85B988B1806188B92F
S11301F087B1807F87B985B1886085B9000096B1E1
S11302009295907F85B1877F85B9000085B188601C
S113021085B9000086B18F7025B1277F25B9892B58
S1130220089580E00E94EC008823DCF300C000C045
S113023080E00E94EC000895CF93C82F0E94110122
S113024060E08C2F0E94C700CF91089581E00E9446
S11302501C010895CF93C82F0E941101CA3049F49C
S1130260803410F480E401C080E080580E941C01B6
S113027004C061E08C2F0E94C700CF910895CF93F2
S1130280DF93FC0103C00E942A01FE01EF012196C5
S113029080818111F8CFDF91CF910895CF93C82F3A
S11302A087B18F6087B984B1806284B987B1806176
S11302B087B984B1886084B98FE99FE00197F1F729
S11302C000C0000088B1826088B988B1816088B9B3
S11302D00E94BF0081EE94E00197F1F700C0000096
S11302E00E94BF0095E19A95F1F700000E94BF00BB
S11302F085E18A95F1F7000088B18E7F88B90E9464
S1130300BF0095E19A95F1F7000088E20E941C0174
S113031088E00E941C010E94260186E00E941C01C4
S11303208C2F0E941C01CF910895EF92FF920F939E
S11303301F93CF93DF93CDB7DEB761970FB6F894D1
S1130340DEBF0FBECDBF8AE191E00E943F0189E28A
S113035091E00E943F01E12CF12C8FE00E941C01EE
S11303600E947B000E948600898B282F30E0205356
S113037031092A30310590F50E942601E1E0F0E0D0
S1130380EC0FFD1FEE0DFF1D898980838FEFE81AA6
S1130390F80AE1E0F0E0EC0FFD1FEE0DFF1D108206
S11303A0CE0101960E943F0187010170107811234C
S11303B034F4015011090E6F1F6F0F5F1F4FCE01F0
S11303C041960E941006000F111FE1E0F0E0EC0FCF
S11303D0FD1FE00FF11F91878087BFCF833209F0A3
S11303E0BCCF0E9426010E94260188E391E00E946E
S11303F03F0187E491E00E943F01E12CF12C8FE062
S11304000E941C010E947B000E948600898B282F79
S113041030E0205331092A30310590F50E9426013D
S1130420E1E0F0E0EC0FFD1FEE0DFF1D89898083F4
S11304308FEFE81AF80AE1E0F0E0EC0FFD1FEE0D93
S1130440FF1D1082CE0101960E943F0187010170B9
S11304501078112334F4015011090E6F1F6F0F5FD0
S11304601F4FCE0141960E941006000F111FE1E0BC
S1130470F0E0EC0FFD1FE00FF11F9587848705C0A6
S1130480833219F40E94260119C089859A859093B4
S1130490D3018093D2018B859C859093D70180935F
S11304A0D6018D859E859093D5018093D4018F8547
S11304B098899093D1018093D001A1CF61960FB612
S11304C0F894DEBF0FBECDBFDF91CF911F910F9186
S11304D0FF90EF900895CF93DF93CDB7DEB72897C1
S11304E00FB6F894DEBF0FBECDBF68C0E091D60151
S11304F0F091D701E05FFE4F20812D83FC01E05F86
S1130500FE4F80818E83E091D001F091D101E05FB4
S1130510FE4F80818F83E091D401F091D501E05F9B
S1130520FE4F8081888740E064E0CE0105960E94FA
S113053069058091D4019091D50101979093D501DB
S11305408093D401019689F589E090E09093D501D8
S11305508093D4018091D0019091D101019790931F
S1130560D1018093D001019601F585E090E090934C
S1130570D1018093D0018091D2019091D301019750
S11305809093D3018093D201019679F489E090E0AD
S11305909093D3018093D2018091D6019091D70199
S11305A001979093D7018093D6018FEF93ED20E3C9
S11305B0815090402040E1F700C000008091D201BA
S11305C09091D301009709F091CF2091D6013091F9
S11305D0D7012115310509F089CF4091D4015091FB
S11305E0D5014115510509F081CF6091D001709179
S11305F0D1016115710509F079CFF901E05FFE4F72
S113060020812983FC01E05FFE4F80818A83FB0106
S1130610E05FFE4F80818B83FA01E05FFE4F8081B3
S11306208C8340E064E0CE0101960E94690585B1A7
S1130630806185B98FEF93ED20E381509040204095
S1130640E1F700C0000085B18F7E85B928960FB60A
S1130650F894DEBF0FBECDBFDF91CF910895CF9345
S1130660DF9300D000D0CDB7DEB70E942F04E09115
S1130670D601F091D701E05FFE4F80818983E0913C
S1130680D201F091D301E05FFE4F80818A83E09133
S1130690D001F091D101E05FFE4F80818B83E09126
S11306A0D401F091D501E05FFE4F80818C8340E05E
S11306B064E0CE0101960E94690587E00E9402056C
S11306C00E9426018091D0019091D1010E943F01A6
S11306D02FEF83ED90E3215080409040E1F700C07C
S11306E000000E94260186E591E00E943F0186E613
S11306F091E00E943F012FEF83ED90E32150804071
S11307009040E1F700C000000E94260186E591E0D8
S11307100E943F0188E691E00E943F012FEF83EDA4
S113072090E3215080409040E1F700C000000E9417
S1130730260186E591E00E943F018AE691E00E944D
S11307403F012FEF83ED90E3215080409040E1F78B
S113075000C000000E9426018CE691E00E943F0147
S11307608DE791E00E943F010E946B020F900F9071
S11307700F900F90DF91CF9108958DE891E00E9442
S11307803F018EE991E00E943F010E9453000E94C4
S11307908600C82F90E00E942E06892BB1F38FEBC0
S11307A08C0F843090F70E942601C134B9F48FEA8B
S11307B091E00E943F011092D5011092D401109251
S11307C0D1011092D0011092D3011092D20183E092
S11307D090E09093D7018093D601D7CFC234B9F477
S11307E089EB91E00E943F011092D5011092D4014F
S11307F01092D1011092D0011092D3011092D20123
S113080082E090E09093D7018093D601BECFC334A9
S1130810B9F483EC91E00E943F011092D50110924B
S1130820D4011092D1011092D0011092D3011092F0
S1130830D20181E090E09093D7018093D601A5CFB7
S11308400E9495010E942F03A0CF8CE00E944E01CC
S11308500E94260180E00E9498040E94BD0384B196
S11308608E7F84B984B18D7F84B985B18C7F85B93D
S113087084B1816084B982E48A95F1F700C090E084
S113088020E41DC084B1826084B981E28A95F1F7C5
S1130890000020FF04C084B18E7F84B903C084B1FA
S11308A0816084B981E28A95F1F7000084B18D7F7B
S11308B084B982E48A95F1F700C026959F5F983049
S11308C008F384B1826084B984B18E7F84B982E4F0
S11308D08A95F1F700C084B18D7F84B981E28A954D
S11308E0F1F70000189903C084B1816084B981E2F2
S11308F08A95F1F7000084B1826084B981E28A9517
S1130900F1F7000084B1816084B981E28A95F1F73E
S1130910000084B18D7F84B982E48A95F1F700C028
S113092084B18E7F84B982E48A95F1F700C008957A
S11309309091CF0198708770892B8093CF0184B1F7
S1130940816084B982E48A95F1F700C09091CF0167
S11309509F70906820E01DC084B1826084B981E2F8
S11309608A95F1F7000090FF04C084B18E7F84B9AA
S113097003C084B1816084B981E28A95F1F70000F3
S113098084B18D7F84B982E48A95F1F700C096958D
S11309902F5F283008F384B1826084B984B18E7FDC
S11309A084B982E48A95F1F700C084B18D7F84B95B
S11309B081E28A95F1F70000189903C084B181603F
S11309C084B981E28A95F1F7000084B1826084B928
S11309D081E28A95F1F7000084B1816084B981E2F3
S11309E08A95F1F7000084B18D7F84B982E48A95F9
S11309F0F1F700C084B18E7F84B982E48A95F1F75F
S1130A0000C00895877088608093CF0184B18160AD
S1130A1084B982E48A95F1F700C09091CF019F7068
S1130A20906820E01DC084B1826084B981E28A9517
S1130A30F1F7000090FF04C084B18E7F84B903C035
S1130A4084B1816084B981E28A95F1F7000084B1B0
S1130A508D7F84B982E48A95F1F700C096952F5F63
S1130A60283008F384B1826084B984B18E7F84B95C
S1130A7082E48A95F1F700C084B18D7F84B981E264
S1130A808A95F1F70000189903C084B1816084B994
S1130A9081E28A95F1F7000084B1826084B981E231
S1130AA08A95F1F7000084B1816084B981E28A9566
S1130AB0F1F7000084B18D7F84B982E48A95F1F75F
S1130AC000C084B18E7F84B982E48A95F1F700C0B6
S1130AD00895FC0184B1816084B982E48A95F1F7B8
S1130AE000C04370406C90E01DC084B1826084B942
S1130AF081E28A95F1F7000040FF04C084B18E7F43
S1130B0084B903C084B1816084B981E28A95F1F724
S1130B10000084B18D7F84B982E48A95F1F700C026
S1130B2046959F5F983008F384B1826084B984B19C
S1130B308E7F84B982E48A95F1F700C084B18D7FF9
S1130B4084B981E28A95F1F70000189903C084B151
S1130B50816084B981E28A95F1F7000040E040C0E9
S1130B60DF01A40FB11D3C9120E01DC094B192603F
S1130B7094B981E28A95F1F7000030FF04C094B182
S1130B809E7F94B903C094B1916094B981E28A952F
S1130B90F1F7000094B19D7F94B982E48A95F1F74E
S1130BA000C036952F5F283008F384B1826084B981
S1130BB084B18E7F84B982E48A95F1F700C094B140
S1130BC09D7F94B981E28A95F1F70000189903C0DA
S1130BD084B1816084B981E28A95F1F700004F5FA6
S1130BE0461708F4BDCF84B1826084B981E28A9546
S1130BF0F1F7000084B1816084B981E28A95F1F74C
S1130C00000084B18D7F84B982E48A95F1F700C035
S1130C1084B18E7F84B982E48A95F1F700C0089587
S1130C20FC0188279927E89421912032E9F329309F
S1130C3010F02E30C8F32B3241F02D3239F4689481
S1130C4004C00E944606820F911D219120532A3030
S1130C50C0F31EF4909581959F4F089591110C94C3
S1130C60380680538A5018F0865C0C943E0608952A
S1130C7099278827089585FD0C9438068062911180
S1130C800C94380681568A51D8F708957AE0979FD4
S1130C90902D879F802D910D11240895F894FFCFF6
S1130CA03132334134353642373839432A302344DC
S1130CB03F065B4F666D7D077F6F656E74657220BE
S1130CC06D696E757465730A002830302D393929C1
S1130CD02023656E74657200656E74657220736599
S1130CE0636F6E64730A002830302D353929202350
S1130CF0656E7465720067616D65207374617274EA
S1130D007320696E0A0033003200310067616D653B
S1130D1020737461727465642121210A00706C610E
S1130D20796572312773207475726E0A00413A3303
S1130D30206D696E20423A32206D696E0A00433A92
S1130D4031206D696E20443A637573746F6D00339E
S1130D50206D696E757465730032206D696E7574EB
S1110D6065730031206D696E75746573000053
S9030000FC
